:100000000C94D5010C94E11B0C94B51B0C94891B2A
:100010000C945D1B0C94311B0C94051B0C94060274
:100020000C9406020C9406020C9406020C94060230
:100030000C9406020C9406020C9406020C94060220
:100040000C9406020C9406020C9406020C94060210
:100050000C9406020C9406020C9406020C943719B8
:100060000C9406020C94AB190C9481190C940602A2
:100070000C9406020C9406020C9406020C940602E0
:100080000C9406020C9406020C9406020C940602D0
:100090000C9406020C9406020C9406020C94E119CE
:1000A0000C9406020C9406020C9406020C940602B0
:1000B0000C9406020C9406020C9406020C940602A0
:1000C0000C9406020C9406020C9406020C94060290
:1000D0000C9406020C9406020C9406020C94060280
:1000E0000C9406020664EC1B3C04BC163E3BE5B9CE
:1000F0003CC93C37C29E5A3D660498083EEA69AA4C
:10010000AA3E000000803F000C94A8060C9422092F
:100110000C9471030C94BA060C9497030C94890305
:100120000C941F090C94340C0C9409040C94EF0DDE
:100130000C9474060C9496060C94F80C0C946203C0
:100140000C94A1030C94D40B0C94F20C0C94940812
:100150000C94260A0C9477040C941F0C0C94960CA7
:100160000C9472080C948B040C94E80B0C940810FB
:100170000C945C0C0C941C0C0C940E0F0C94EC0D59
:100180000C9477030C9454140C943B040C94D104F9
:100190000C9439040C940F090C949C0C0C94380F9B
:1001A0000C944B030C9412090C949D130C94B00600
:1001B0000C9405070C94350E0C9414070C945D10E8
:1001C0000C9471080C945D0F0C94370C0C949303F1
:1001D0000C9481080C940F070C9482060C94930CD9
:1001E0000C94F1060C9466030C941C090C943A04CC
:1001F0000C94DD060C947B030C9499040C94CE06AD
:100200000C9468040C94BA120C947D060C94EA09C0
:100210000C9415090C94AC0B0C94FB060C94381040
:100220000C94790F0C94911C0C94E7060C948503A4
:100230000C943A0C0C9448090C94900C0C94F50C0A
:100240000C948C060C946A030C94CD130C945003FC
:100250000C9418090C941E050C94A0060C946E03C3
:100260000C94B20B0C94990C0C94E90D0C94D715CA
:100270000C949D030C94AF0B0C94C4060C94C10811
:100280000C948F030C9481030000210024002700AC
:100290002A002D0030003300010100000401070195
:1002A0000A0100002200250028002B002E0031004A
:1002B000340002010000050108010B0100000A0BD7
:1002C00002090C0D0E0807030401000000000000E5
:1002D000000000000000000000000000000000001E
:1002E00000000000000000001211100000000000DB
:1002F00000000000000000000000000000000000FE
:10030000000001021020200808102040102040802A
:1003100002010201080402010102040810204080C9
:100320008040201008040201800402018040201057
:1003300008040201080402010102040810204080A0
:100340000102040810204080000020002300260045
:1003500029002C002F0032000001000003010601DB
:10036000090105050505070508080808020202023B
:100370000A0A080804040404010101010101010141
:100380000303030303030303040707070C0C0C0C0C
:100390000C0C0C0C020202020606060606060606F5
:1003A0000B0B0B0B0B0B0B0B911C11241FBECFEF78
:1003B000D1E2DEBFCDBF00E00CBF15E0A0E0B2E0AF
:1003C000ECE0FDE500E00BBF02C007900D92A83EF7
:1003D000B107D9F72DE0A8EEB5E001C01D92AD3E02
:1003E000B207E1F711E0C5EDD1E000E006C02197CA
:1003F0000109802FFE010E948A26C43DD10780E0BA
:100400000807A9F70E947B1F0C94842E0C9400000F
:100410002F923F924F925F926F927F928F929F9214
:10042000AF92BF92CF92DF92EF92FF920F931F9302
:10043000CF93DF93CDB7DEB761970FB6F894DEBFE9
:100440000FBECDBF29013A01E986FA860B871C87CA
:10045000C090CD0CD090CE0CE090CF0CF090D00C92
:1004600020E030E040E752E40E949128A701960185
:100470000E9432274B015C0120E030E040E752E46B
:10048000C301B2010E949128A70196010E94322760
:100490006D877E878F87988B20E030E040E05FE3B8
:1004A0006091C10C7091C20C8091C30C9091C40CEE
:1004B0000E9491282B013C0120E030E040E05FE306
:1004C0006091C50C7091C60C8091C70C9091C80CBE
:1004D0000E9491289B01AC01C301B2010E94C12678
:1004E0002B013C0120E030E040E752E469857A8549
:1004F0008B859C850E9491289B01AC01C301B201B0
:100500000E949128A70196010E9432276B017C016D
:100510002D853E854F855889C501B4010E94C026AE
:100520002B013C01A70196010E94C0260E94A4272E
:100530002090BF0C3090C00C00271127021913091E
:10054000601771070CF471C07A8769872616370621
:1005500014F43A8629862D853E854F855889C50134
:10056000B4010E94C1264B015C01AC019B01C70193
:10057000B6010E94C1260E94A427601771070CF4DF
:1005800057C02D86398A6215730514F46D87798BEF
:10059000A7019601C501B4010E94C0260E94A427AC
:1005A000B02EA12E601771073CF0B22CA32C62155F
:1005B000730514F4B62EA72EA3019201C701B6014C
:1005C0000E94C1260E94A427601771072CF08101A8
:1005D000621573050CF48B0189859A859A8389834A
:1005E0009D85898918870F8329853A81492F582F3E
:1005F0006B2D7A2D802F988561960FB6F894DEBF0B
:100600000FBECDBFDF91CF911F910F91FF90EF9063
:10061000DF90CF90BF90AF909F908F907F906F9022
:100620005F904F903F902F9008951A87098793CF3E
:100630000D87198BADCF282F30E0F901E454FD4F21
:100640009491F901EE5FFC4F44912E593C4FF90112
:100650002491222309F435C0992311F1915092314C
:10066000F8F4E92FF0E08827E75CFC4F8F4F0C94FB
:100670008A266A036E034B03620366035003710309
:1006800077037B038103850389038F03930350035F
:1006900097039D03A103809180008F778093800052
:1006A000E22FF0E0EE0FFF1FEE55FD4FA591B49144
:1006B0008FB7F894EC91611148C040954E234C934C
:1006C0008FBF0895809180008F7DE8CF809180005A
:1006D000877FE4CF84B58F7784BDE2CF84B58F7DEB
:1006E000FBCF8091B0008F778093B000D9CF8091FD
:1006F000B0008F7DF9CF809190008F77809390002C
:10070000CFCF809190008F7DF9CF80919000877F2F
:10071000F5CF8091A0008F778093A000C1CF80910A
:10072000A0008F7DF9CF8091A000877FF5CF8091C9
:1007300020018F7780932001B3CF809120018F7D9E
:10074000F9CF80912001877FF5CF4E2BB8CFCF9383
:10075000DF9390E0FC01EE5FFC4F24918E599C4F9B
:10076000FC0184918823D1F090E0880F991FFC014F
:10077000E857FD4FA591B491FC01EE55FD4FC59191
:10078000D491623071F49FB7F8943C91822F809598
:1007900083238C93E8812E2B28839FBFDF91CF91F9
:1007A00008958FB7F894EC912E2B2C938FBFF6CF32
:1007B0003FB7F8948091800690918106A0918206BF
:1007C000B091830626B5A89B05C02F3F19F001966E
:1007D000A11DB11D3FBFBA2FA92F982F8827BC019B
:1007E000CD01620F711D811D911D42E0660F771FC3
:1007F000881F991F4A95D1F708952FB7F8946091F3
:100800007C0670917D0680917E0690917F062FBFB9
:100810000895FC0184819581A681B781809360064B
:1008200090936106A0936206B093630680859185DC
:10083000A285B38580935C0690935D06A0935E06C7
:10084000B0935F06828D938DA48DB58D80935806ED
:1008500090935906A0935A06B0935B060E94FD033D
:100860006093730670937406809375069093760672
:10087000089508950895AF92BF92CF92DF92EF92BC
:10088000FF920F931F93CF93DF936C017B018B013A
:10089000040F151FEB015E01AE18BF08C017D1078A
:1008A00059F06991D601ED91FC910190F081E02D14
:1008B000C6011995892B79F7C501DF91CF911F9159
:1008C0000F91FF90EF90DF90CF90BF90AF90089581
:1008D000FC01538D448D252F30E0842F90E0821B46
:1008E000930B541710F0CF96089501970895FC01CB
:1008F000918D828D981761F0A28DAE0FBF2FB11D23
:100900005D968C91928D9F5F9F73928F90E008957A
:100910008FEF9FEF0895FC01918D828D981731F034
:10092000828DE80FF11D858D90E008958FEF9FEF88
:100930000895FC01918D228D892F90E0805C9F4F5E
:10094000821B91098F739927089580EE96E00E948B
:10095000990421E0892B09F420E0822F0895FC01FD
:10096000A48DA80FB92FB11DA35ABF4F2C91848D10
:1009700090E001968F739927848FA689B7892C936D
:10098000A089B1898C91837080648C93938D848DC0
:10099000981306C00288F389E02D80818F7D8083C3
:1009A0000895EF92FF920F931F93CF93DF93EC0183
:1009B00081E0888F9B8D8C8D98131AC0E889F98906
:1009C000808185FF15C09FB7F894EE89FF89608309
:1009D000E889F98980818370806480839FBF81E08A
:1009E00090E0DF91CF911F910F91FF90EF900895CC
:1009F000F62E0B8D10E00F5F1F4F0F731127E02EA7
:100A00008C8D8E110CC00FB607FCFACFE889F989DE
:100A1000808185FFF5CFCE010E94AF04F1CFEB8D31
:100A2000EC0FFD2FF11DE35AFF4FF0829FB7F894B2
:100A30000B8FEA89FB8980818062CFCFCF93DF93D0
:100A4000EC01888D8823B9F0AA89BB89E889F989E6
:100A50008C9185FD03C0808186FD0DC00FB607FC1B
:100A6000F7CF8C9185FFF2CF808185FFEDCFCE014E
:100A70000E94AF04E9CFDF91CF91089580E090E02C
:100A8000892B29F00E94A50481110E94000080E0BA
:100A900090E0892B49F080E090E0892B29F00E94BA
:100AA000000081110E94000080E090E0892B49F055
:100AB00080E090E0892B29F00E94000081110E94C3
:100AC000000080E090E0892B49F080E090E0892BE5
:100AD00029F00E94000081110C94000008954F92AB
:100AE0005F926F927F928F929F92AF92BF92CF92BE
:100AF000DF92EF92FF920F931F93CF93DF93EC015E
:100B00004A015B01A9019801CB01B4010E94C026F2
:100B10002B013C01AC019B016C897D898E899F89E9
:100B20000E94C1266C8B7D8B8E8B9F8B2C8D3D8D77
:100B30004E8D5F8DC301B2010E94C0266B017C0106
:100B4000C88ED98EEA8EFB8E20E030E0A901C50167
:100B5000B4010E942D2781110DC020E030E0A901D1
:100B6000C301B2010E942D27811104C01C8A1D8A75
:100B70001E8A1F8A2C893D894E895F896C857D85F7
:100B80008E859F850E9491284B015C0128853985BF
:100B90004A855B85C301B2010E9491289B01AC018B
:100BA000C501B4010E94C1264B015C012889398925
:100BB0004A895B89C701B6010E9491289B01AC015B
:100BC000C501B4010E94C1265B016C014C8E5D8E93
:100BD0006E8E7F8EE880F9800A811B819B01AC01BB
:100BE000B701C8010E948C28181674F0EC80FD80B3
:100BF0000E811F819501A601B701C8010E942D2712
:100C000087FD02C075018601B701C801DF91CF9150
:100C10001F910F91FF90EF90DF90CF90BF90AF901A
:100C20009F908F907F906F905F904F9008950F935B
:100C30001F93CF93DF93FC0120813181232B09F097
:100C400057C08B01EC0116161706D4F461E08481BD
:100C50000E941B0360E08E810E941B030A80DB81DF
:100C6000C02D61E08C2F0E94A7030115110581F4AE
:100C700060E08C2FDF91CF911F910F910C941B039B
:100C8000672B61F360E084810E941B0361E0E3CF86
:100C900017FF03C01195019511090F3F110511F4BC
:100CA00061E0E7CFFE01FF27E454FD4FE491E150FE
:100CB000E23108F0B4C0F0E08827EE59F94F8F4FC9
:100CC0000C948A2674067D0682068C0696060F070B
:100CD000A006A806B006BA06C406CE06DD06E706DC
:100CE0000F07F106FB06050784B5806884BD07BDC4
:100CF000DF91CF911F910F91089584B5806284BDDB
:100D000008BDF6CF809180008068809380001093AA
:100D1000890000938800ECCF8091800080628093EE
:100D2000800010938B0000938A00E2CF80918000B6
:100D300088608093800010938D0000938C00D8CF42
:100D40008091B00080688093B0000093B300D0CF52
:100D50008091B00080628093B0000093B400C8CF4F
:100D60008091900080688093900010939900009388
:100D70009800BECF80919000806280939000109385
:100D80009B0000939A00B4CF80919000886080937C
:100D9000900010939D0000939C00AACF8091A0002A
:100DA00080688093A0008091A0008F7B8093A0003A
:100DB0001093A9000093A8009BCF8091A0008062AF
:100DC0008093A0001093AB000093AA0091CF809174
:100DD000A00088608093A0001093AD000093AC0049
:100DE00087CF809120018068809320011093290192
:100DF000009328017DCF80912001806280932001A3
:100E000010932B0100932A0173CF809120018860F9
:100E10008093200110932D0100932C0169CF00389D
:100E200011050CF03DCF24CF8091680690916906A2
:100E3000891B990B089520911506260F3327331F20
:100E400021323105ECF42091AA06FC0190E080E00B
:100E5000243069F082E00895A09115062191AC013B
:100E60004B505A4FA40FB52FB11D2C9301968617E6
:100E700098F380911506680F6093150680E0089539
:100E800081E008951092AA0681E08093A90610924D
:100E9000840661E084E10E941B0361E085E10E9419
:100EA0001B03E9EBF0E080818E7F808380818D7F62
:100EB000808388E48093B80085E48093BC00089523
:100EC000CF93DF9391E09093F4058823B9F0C0911C
:100ED000B800D091BA008091BC008A7B8093BC009E
:100EE00060E084E10E941B0360E085E10E941B0337
:100EF0000E944207D093BA00C093B800DF91CF910F
:100F000008958F929F92AF92BF92CF92DF92EF920D
:100F1000FF920F931F93CF93DF93D091D306D132DB
:100F200008F0D7C0182FC091D2060E94D8036B01D9
:100F30007C018091AA0681116BC082E08093AA0691
:100F40001093A9068FEF8093A8061092A706D0935E
:100F5000A606A2EBB6E0E6E8F6E080E0D81391C082
:100F60001092850680918506CC0FC82BC09385060C
:100F700080918406813009F088C0109284060E9416
:100F8000D8036B017C01809185068093BB00809122
:100F9000AC069091AD06A091AE06B091AF06892B3C
:100FA0008A2B8B2BA1F00E94D8030091AC061091E4
:100FB000AD062091AE063091AF066C197D098E0901
:100FC0009F09061717072807390708F442C08091C0
:100FD000BC0083FDD8CF85EC8093BC000E94D80371
:100FE0006B017C018091AA06823009F450C0809187
:100FF000A8068F3F09F46FC08091A806803209F4DB
:101000006CC08091A806803309F469C084E026C0D2
:101010008091AC069091AD06A091AE06B091AF065E
:10102000892B8A2B8B2B09F484CF0E94D8038090C4
:10103000AC069090AD06A090AE06B090AF066C19CD
:101040007D098E099F0986169706A806B90608F03D
:1010500070CF8091AB060E94600785E01092B106C8
:101060001092D3061092B006DF91CF911F910F918D
:10107000FF90EF90DF90CF90BF90AF909F908F90B8
:1010800008959D9191938F5F69CF85EEA5CF809153
:10109000AC069091AD06A091AE06B091AF06892B3B
:1010A0008A2B8B2B09F49ECF0E94D8030091AC06AB
:1010B0001091AD062091AE063091AF066C197D09F6
:1010C0008E099F09061717072807390708F08ACFE6
:1010D000C0CF81E0C3CF80E0C1CF82E0BFCF83E04B
:1010E000BDCF0895E091690680916806E81730F455
:1010F000F0E0E85CF94F808190E008958FEF9FEF7A
:10110000089590916906809168062FEF3FEF981738
:1011100048F4E92FF0E0E85CF94F208130E09F5F70
:1011200090936906C9010895CF92DF92EF92FF92E2
:101130000F931F93CF93DF937C01CB018A01209102
:10114000B006222389F0EB016B01C40ED51ECC152D
:10115000DD0569F06991D701ED91FC910190F08175
:10116000E02DC7011995F3CF642F0E941B07C8011A
:10117000DF91CF911F910F91FF90EF90DF90CF9073
:101180000895CF93DF931F92CDB7DEB76983209187
:10119000B0062223F9F02091D306203258F021E046
:1011A00030E0FC013383228390E080E00F90DF91F8
:1011B000CF9108958091B106E82FF0E0EE54F94FF9
:1011C000998190838F5F8093B1068093D30681E0ED
:1011D00090E0ECCF61E0CE0101960E941B07F7CFB3
:1011E000CF93DF93EA0191E09093B0068093D2060B
:1011F0001092B1061092D30684ED96E00E94C108C9
:10120000688184ED96E00E94C10881E00E94810718
:1012100091E0811190E0892FDF91CF91089590E0C6
:1012200080E0089584ED92E0089585EF92E00895BE
:10123000FC0186A197A1089589E093E008958AE2D0
:1012400093E00895FC01868997890895CF93DF93F1
:1012500000D01F921F92CDB7DEB72AE432E03A8366
:1012600029836B835D834C83DC01ED91FC910190BC
:10127000F081E02DAE014F5F5F4F67E070E01995A0
:101280000F900F900F900F900F90DF91CF910895D6
:101290000F931F93CF93DF93643671054CF0FC01DD
:1012A000EA57FB4F208110E000E0222309F44DC0F3
:1012B000DA018B01EC01BC01615E7D4FED91FC9187
:1012C0000190F081E02DCA011995BE01685E7D4F45
:1012D0002FEFDB012C93FE01E75EFD4F2EEF208305
:1012E00031968083319690833196292F280F20954F
:1012F00020833196008316961C9345E050E030E041
:1013000020E08C010A5F1F4F0417150734F0A191EC
:101310002A0F311D4F5F5F4FF7CF8C01085F1F4FC2
:101320008C0F9D1FFC01E15EFD4F20952083013055
:10133000B2E01B0784F48A819B81DC01ED91FC9172
:101340000280F381E02DA8011995C801DF91CF91AA
:101350001F910F91089548E353E063E0CE010E948E
:1013600026090FEF1FEFF1CF0F931F93CF93DF935A
:1013700000D000D000D01F92CDB7DEB78C018EE335
:1013800092E09A8389831B821C821D821E821F82A7
:10139000188619861A86D801ED91FC910190F0818A
:1013A000E02DAE014F5F5F4F6AE070E0C801199514
:1013B0000E94FD03F80160877187828793872A96D0
:1013C0000FB6F894DEBF0FBECDBFDF91CF911F9156
:1013D0000F9108958A579B4FFC0180810895CF9209
:1013E000DF92EF92FF92DC011D921D921D921C92E2
:1013F0001397FB0130E020E0419150E0022E02C043
:10140000440F551F0A94E2F7052E000C660B770B6C
:10141000CD90DD90ED90FC9013974C295D296E29BD
:101420007F294D935D936D937C931397285F3F4F76
:101430002032310509F7FF90EF90DF90CF900895AB
:10144000FC01408351831282138208950F931F93EE
:10145000FC0146815781608571850285138524854D
:10146000358582819381A481B581E3E3FDE08087A6
:101470009187A287B3870487158726873787408B94
:10148000518B628B738BE3E1FDE080879187A287AC
:10149000B3870487158726873787408B518B628BEC
:1014A000738BE3EFFCE080879187A287B387048783
:1014B000158726873787408B518B628B738BE3EDC3
:1014C000FCE080879187A287B387048715872687EA
:1014D0003787408B518B628B738B1F910F910895CF
:1014E000DC01ED91FD918081ED91FD919081ED9177
:1014F000FD916C9163708E2309F064609F2309F065
:101500006860EDE8FAE0E60FF11D659565956D936D
:101510006D917D918D919D91099423C01AC012C047
:1015200016C010C01EC009C014C013C006C019C028
:1015300009C00DC007C00DC014C06250704080408B
:1015400090400BC0615070408040904006C06E5F7C
:1015500001C06F5F7F4F8F4F9F4F9E938E937E93FF
:101560006E930895CF93DF93EC018D89823068F4F8
:10157000F894CE010A960E94700A69897A898B894B
:101580009C897894DF91CF910895F894F6CF4F928B
:101590005F926F927F928F929F92AF92BF92CF9203
:1015A000DF92EF92FF92CF93DF9300D000D0CDB7C0
:1015B000DEB79E838D830E94B20A6B017C010E947C
:1015C000FD034B015C01ED81FE8182819381A48149
:1015D000B581A5019401281B390B4A0B5B0BCA018D
:1015E000B9010E94DA2720E030E64AE657E40E947B
:1015F000322769837A838B839C83ED81FE81868188
:101600009781A085B185A7019601281B390B4A0B4C
:101610005B0BCA01B9010E94DC272B013C01ED8163
:10162000FE8182829382A482B582C682D782E086BE
:10163000F18660817181072E000C880B990B0E9446
:10164000DC279B01AC01C301B2010E943227298132
:101650003A814B815C810E9432270E94A427CB01F2
:1016600026960FB6F894DEBF0FBECDBFDF91CF91A7
:10167000FF90EF90DF90CF90BF90AF909F908F90B2
:101680007F906F905F904F900895EF92FF920F932D
:101690001F93CF93DF93EC01062F142F62E0802F6E
:1016A0000E94A70362E0812F0E94A70382E296E0D6
:1016B00099838883802F90E0FC01EE59FC4FE491E0
:1016C000F0E0EE0FFF1FE85BFC4FA591B491BB87E4
:1016D000AA87FC01EE5FFC4F24912E87812F90E0BA
:1016E000FC01EE59FC4FE491F0E0EE0FFF1FE85BC8
:1016F000FC4F459154915D874C87FC01EE5FFC4F98
:10170000E491EF87198A1A8A1B8A1C8A8BE39FE16E
:101710000197F1F78C91282391E009F490E0DA0128
:101720008C91E82309F09260988B7E01BAE0EB0E71
:10173000F11CB701802F0E94511C8D8BB701812FA6
:101740000E94511C9D89890F8D8BDF91CF911F9134
:101750000F91FF90EF90089581E793E0089582E95B
:1017600093E00895FC01DB014D915D916D917C91B9
:101770001397428353836483758314964D915D91CF
:101780006D917C9117974683578360877187189670
:101790008D919D910D90BC91A02D82879387A487F8
:1017A000B5878CE090E008950F931F93CF93DF935C
:1017B0008C01EC012696CE010E94B20BD801549602
:1017C000ED91FC91CE01DF91CF911F910F91199472
:1017D000DC01FB0112963C91129713962C91139702
:1017E00014969C91149715968C91159730832183AC
:1017F0009283838316963C91169717962C91179790
:1018000018969C91189719968C9119973483258373
:10181000968387831A963C911A971B962C911B9757
:101820001C969C911C971D968C91308721879287DE
:1018300083878CE090E0089580EA93E0089581EC3E
:1018400093E00895FC0186E292E091838083128206
:1018500013821482158216821782108611861286D0
:10186000138614861586089587ED93E0089588EF12
:1018700093E00895FC01DB014D915D916D917C91A8
:101880001397428353836483758314964D915D91BE
:101890006D917C911797468357836087718718965F
:1018A0008D919D910D90BC91A02D82879387A487E7
:1018B000B5878CE090E00895DC01FB0112963C9125
:1018C000129713962C91139714969C911497159632
:1018D0008C911597308321839283838316963C9154
:1018E000169717962C91179718969C9118971996FA
:1018F0008C91199734832583968387831A963C911C
:101900001A971B962C911B971C969C911C971D96C1
:101910008C9130872187928783878CE090E00895AF
:101920008DE094E0089586E092E008958EE294E0E0
:1019300008958FE494E008954F925F926F927F92A2
:101940008F929F92AF92BF92EF92FF920F931F934D
:10195000CF93DF9300D01F92CDB7DEB77C018B0110
:10196000FB018191BF01F7018283CE0101960E94A4
:10197000EF0989819A81AB81BC814C015D01F5E061
:101980008F0E911CA11CB11CA8014C5F5F4FFA0186
:1019900025E030E02901712C612C481459046A04B7
:1019A0007B0428F4618161932F5F3F4FF3CFF801EF
:1019B000E80FF91F1482F7015483438305960F90B3
:1019C0000F900F900F90DF91CF911F910F91FF908B
:1019D000EF90BF90AF909F908F907F906F905F90AF
:1019E0004F90089582E694E0089583E894E0089586
:1019F0004F925F926F927F928F929F92AF92BF921F
:101A0000CF92DF92EF92FF920F931F93CF93DF93CA
:101A1000CDB7DEB72C970FB6F894DEBF0FBECDBFA3
:101A20007C018B01DB018C9190E0F7019383828331
:101A300011962C91922B938382836E5F7F4FCE0100
:101A400001960E94EF0989809A80AB80BC802401B6
:101A50003501F6E04F0E511C611C711C98012B5F83
:101A60003F4FF90186E090E0AC0170E060E0441582
:101A700055056605770520F4418141930196F4CF21
:101A8000B4016A5F7F4FF801E80DF91D1582D70197
:101A900015963C932E931497600F711FCE010596F7
:101AA0000E94EF09BAE08B0E911C4D805E806F8022
:101AB0007884C401092C000CAA0BBB0B5C016D01DE
:101AC000A40CB51CC61CD71CF801E80DF91DAF010C
:101AD000401B510B70E060E04A155B056C057D050D
:101AE00038F42191AF0142505109DA012C93EFCF24
:101AF000480C591CB801640D751DFB01319710820B
:101B0000C4010197800F911FF70197838683CE014F
:101B100009960E94EF0992012C5F3F4F89849A84B5
:101B2000AB84BC84A901032E000C660B770B480D17
:101B3000591D6A1D7B1DF801E20FF31FCF01801BA9
:101B4000910BB0E0A0E084179507A607B70728F42B
:101B50008191DF0112978C93F1CFC901880D991DF6
:101B6000F801E80FF91FDF0111971C92215031098C
:101B7000020F131FD70119961C930E9318972181FA
:101B8000428150E070E060E0BA0155274427522BB3
:101B90002081422B2381722BF70142875387648770
:101BA000758704962C960FB6F894DEBF0FBECDBF96
:101BB000DF91CF911F910F91FF90EF90DF90CF9029
:101BC000BF90AF909F908F907F906F905F904F905D
:101BD00008958CE994E008958DEB94E00895FC015C
:101BE000DB014C9150E070E060E0428353836483FA
:101BF000758311968C911197582B4283538364837C
:101C0000758312968C911297682B42835383648359
:101C1000758313968C911397782B42835383648337
:101C2000758314964C91149750E070E060E0468301
:101C300057836087718715968C911597582B46832B
:101C400057836087718716968C911697682B468309
:101C500057836087718717968C91782B46835783BB
:101C60006087718788E090E00895DC01FB0112969F
:101C70008C911297808313968C911397818314967D
:101C80008C911497828315968C9115978383169661
:101C90008C911697848317968C9117978583189645
:101CA0008C911897868319968C91878388E090E0B1
:101CB0000895CF92DF92EF92FF920F931F93FC0152
:101CC000DB01C3800C2D10E030E020E045E03695CC
:101CD0002795179507954A95D1F70D931D932D9349
:101CE0003C9313978481C82ED12CF12CE12C53E026
:101CF000CC0CDD1CEE1CFF1C5A95D1F7C02AD12A52
:101D0000E22AF32ACD92DD92ED92FC92139785811F
:101D1000082F10E030E020E06BE0000F111F221FC1
:101D2000331F6A95D1F70C291D292E293F290D93C0
:101D30001D932D933C931397468150E070E060E033
:101D400083E1440F551F661F771F8A95D1F74427FB
:101D5000552768777727042B152B262B372B0D93C8
:101D60001D932D933C931397478150E070E060E002
:101D700094E0440F551F661F771F9A95D1F7407F57
:101D8000577066277727C680D12CF12CE12C84E090
:101D9000F694E794D794C7948A95D1F74C295D2996
:101DA0006E297F294115510561057105A1F0405843
:101DB00053406109710997E1440F551F661F771F52
:101DC0009A95D1F7402B512B622B732B4D935D933A
:101DD0006D937C931397478150E070E060E0742F1F
:101DE00066275527442744275527662770780D9185
:101DF0001D912D913C911397402B512B622B732BEE
:101E00004D935D936D937C93139788E090E01F91C1
:101E10000F91FF90EF90DF90CF900895EF92FF9297
:101E20000F931F93CF93DF938C017B01BC016E5FF7
:101E30007F4FC7010E94590EEC01B8016A5F7F4FC6
:101E4000C7018C0F9D1F0E94590EC80FD91FB801E2
:101E5000665F7F4FC7018C0F9D1F0E94590E8C0F2C
:101E60009D1FDF91CF911F910F91FF90EF900895EB
:101E7000EF92FF920F931F93CF93DF937C018B011F
:101E800002960E940E0FEC01B801680F791FC7017E
:101E900040960E940E0FC80FD91FB8016C0F7D1F0E
:101EA000C7014E960E940E0F8C0F9D1FDF91CF91A0
:101EB0001F910F91FF90EF900895EF92FF920F9373
:101EC0001F93CF93DF937C01EB0102960E940E0FCC
:101ED0008C01BE01680F791FC70140960E940E0F4A
:101EE000800F911FDF91CF911F910F91FF90EF9085
:101EF00008950F931F93CF93DF938C01EC012696E7
:101F0000CE010E945D0FD8019496ED91FC91CE0117
:101F1000DF91CF911F910F9119948F929F92AF9261
:101F2000BF92CF92DF92EF92FF92CF93DF93EC01BB
:101F30004A015B01DB01CA0147E1B595A795979579
:101F400087954A95D1F79927AA27BB270097A1051E
:101F5000B10521F080589C4FAF4FBF4F18821982B6
:101F60001A82B501A40125E0440F551F661F771F93
:101F70002A95D1F74B83B501A40133E07595679598
:101F8000579547953A95D1F74C83B501A401EBE0FD
:101F90007595679557954795EA95D1F74D83B501A6
:101FA000A401F3E17595679557954795FA95D1F793
:101FB0004F706C017D0124E0CC0CDD1CEE1CFF1C7D
:101FC0002A95D1F74C294E836C017D0134E0F594BC
:101FD000E794D794C7943A95D1F720E030E0A9016F
:101FE000C501B4010E942D2787FD0EC0CF8288E075
:101FF00090E0DF91CF91FF90EF90DF90CF90BF9076
:10200000AF909F908F9008958C2D80688F83EFCF35
:10201000EF92FF920F931F93CF93DF937C018B017D
:10202000FC014281538164817581C8010E948D0F3A
:10203000EC01F7014681578160857185C8018C0FDD
:102040009D1F0E948D0FC80FD91FF7014285538530
:1020500064857585C8018C0F9D1F0E948D0F8C0FA4
:102060009D1FDF91CF911F910F91FF90EF900895E9
:10207000EF92FF920F931F93CF93DF937C018B011D
:1020800002960E940810EC01B801680F791FC70181
:1020900040960E940810C80FD91FB8016C0F7D1F11
:1020A000C7014E960E9408108C0F9D1FDF91CF91A3
:1020B0001F910F91FF90EF900895EF92FF920F9371
:1020C0001F93CF93DF937C01EB0102960E940810CF
:1020D0008C01BE01680F791FC70140960E9408104D
:1020E000800F911FDF91CF911F910F91FF90EF9083
:1020F00008952F923F924F925F926F927F928F92AC
:102100009F92AF92BF92CF92DF92EF92FF920F9386
:102110001F93CF93DF9300D000D000D01F921F9267
:10212000CDB7DEB7E82ED62EF42E3D832C831801D2
:102130000E94FD034B015C012E2D220F2B830F2DDE
:10214000C12C1B8611E04F2D50E05A834983C101F9
:10215000B0E0A0E08E839F83A887B9871093B00674
:10216000E092D2061092B1061092D3066D2D84ED46
:1021700096E00E94C10881E00E9481071093B0069A
:102180001092B1061092D3060E94D8032B013C0195
:102190008091AA0681116DC00A87013210F090E289
:1021A0009A871093AA061093A906AFEFA093A806EA
:1021B0001092A7068A8581508093A6061093850603
:1021C00080918506BB818B2B809385068091840648
:1021D000813009F091C0109284060E94D8032B012F
:1021E0003C01809185068093BB008091AC06909164
:1021F000AD06A091AE06B091AF06892B8A2B8B2B32
:10220000A1F00E94D8032091AC063091AD06409118
:10221000AE065091AF06641975098609970926170D
:1022200037074807590708F445C08091BC0083FD73
:10223000D8CF25EC2093BC000E94D8032B013C0191
:102240008091AA06813009F45BC08091A7064A8577
:10225000841718F45091A7065A87A6E8B6E0E8E379
:10226000F6E080E09A85891751F19D9191938F5FF7
:10227000F9CF8091AC069091AD06A091AE06B091D9
:10228000AF06892B8A2B8B2B09F482CF0E94D803AF
:102290002091AC063091AD064091AE065091AF064C
:1022A00064197509860997092617370748075907DA
:1022B00008F06ECF8091AB060E9460071A861092DC
:1022C0006906AA85A093680680916906BA85B81741
:1022D00009F448C021143104A9F584ED96E00E9468
:1022E0008108EC81FD812B85E20FF11D27FDFA9518
:1022F00080832F5F2B87E8CF35EE3093BC009CCFD7
:102300008091AC069091AD06A091AE06B091AF065B
:10231000892B8A2B8B2B09F493CF0E94D803209111
:10232000AC063091AD064091AE065091AF066419EF
:10233000750986099709261737074807590708F0CE
:102340007FCFB8CF0E94FD03681979098A099B09DC
:102350002E813F8148855985621773078407950749
:1023600008F4BBCFCF0C0F19CF1408F4F7CE21140B
:102370003104D9F00E94FD03AB01BC014819590991
:102380006A097B09C101B0E0A0E0481759076A0754
:102390007B0758F03B85832F330F990B49815A8176
:1023A0008417950714F45FEF5B878B852B960FB628
:1023B000F894DEBF0FBECDBFDF91CF911F910F917B
:1023C000FF90EF90DF90CF90BF90AF909F908F9055
:1023D0007F906F905F904F903F902F900895BF92A5
:1023E000CF92DF92EF92FF920F931F93CF93DF93E1
:1023F0001F921F92CDB7DEB7F82EE62EC42EB22E56
:10240000D02E08EE13E09E012E5F3F4F41E00E9468
:102410007910882399F18C2D8B19990BAC014F5FA2
:102420005F4F81E090E002C0880F991FBA94E2F7F5
:102430000197042E01C0880F0A94EAF70D2D01C000
:10244000000F4A95EAF7982F90952A8192238023CE
:10245000892B8A838983AE014F5F5F4F6E2D8F2D4D
:102460000E94F0080F900F90DF91CF911F910F9174
:10247000FF90EF90DF90CF90BF90089580E0F2CF73
:10248000EF92FF920F931F93CF93DF931F921F92B0
:10249000CDB7DEB77C0101E023E042E06BE6FC0152
:1024A00080810E94EF1100E022E044E06BE1F7013F
:1024B00080810E94EF1122E044E06CE1F70180810D
:1024C0000E94EF11F701F08008EE13E09E012E5FED
:1024D0003F4F41E06BE68F2D0E9479108A818F7B00
:1024E0008A838983AE014F5F5F4F6BE68F2D0E9419
:1024F000F0080F900F90DF91CF911F910F91FF90F7
:10250000EF90089585ED8093BC008091AC0690918A
:10251000AD06A091AE06B091AF060796A11DB11D04
:1025200023E0B695A795979587952A95D1F72091A1
:10253000BC0024FD03C01092AA0608954091AC0689
:102540005091AD066091AE067091AF06452B462BBB
:10255000472B69F30097A105B10541F02AE22A95BE
:10256000F1F700C00197A109B109E1CF8091AB0655
:102570000C9460074F925F926F927F928F929F921E
:10258000AF92BF92CF92DF92EF92FF920F931F9381
:10259000CF93DF93EC017B018A81FB0180838B81E8
:1025A00081838C8182838D8183833496412C512C4D
:1025B000320104E010E09F012F5F3F4FCF010296F0
:1025C000DF011396A8010C5F1F4F8A809B80AC80AF
:1025D000BD80481459046A047B04C8F4AA85BB85ED
:1025E000A40FB51F14974C9111962C911197129628
:1025F0009C91129713968C914083218392838383BD
:102600008FEF481A580A680A780A3496D4CF4C8556
:1026100040834D85F90140832E85FC0120838F8501
:102620008C93F701E00FF11F412C512C3201AF01C7
:102630009F012F5F3F4FCF010296DF0113960C5F82
:102640001F4F8C849D84AE84BF84481459046A044F
:102650007B04D8F4CF01841B950BAC89BD89A80FEE
:10266000B91F3C9111962C91119712969C9112973B
:1026700013968C9130832183928383838FEF481A42
:10268000580A680A780A3496D3CF4E8940834F8916
:10269000F9014083288DFC012083898D8C93412C86
:1026A000512C32018E899F89A88DB98D4816590603
:1026B0006A067B0680F55201AA0CBB1CEC8DFD8DD1
:1026C000EA0DFB1DA081B181FD0101900020E9F719
:1026D00031976F01CA1ADB0AA60170E060E0C701FA
:1026E000800F911F0E94200A0C5F1F4F8C8D9D8DC3
:1026F000A80EB91EF50160817181A601C701800F86
:10270000911F0E94802A0C0D1D1DFFEF4F1A5F0ABA
:102710006F0A7F0AC7CFC801DF91CF911F910F9138
:10272000FF90EF90DF90CF90BF90AF909F908F90F1
:102730007F906F905F904F900895EF92FF920F936C
:102740001F93CF93DF938C017B01DC0112962C91B8
:102750001297FB012193CF011396ED91FC91EF01AC
:1027600009900020E9F72197CE1BDF0BAE0170E046
:1027700060E00E94200AD80113966D917C91AE0111
:10278000C70105960E94802ACE010596DF91CF9160
:102790001F910F91FF90EF900895CF92DF92EF92EB
:1027A000FF920F931F93CF93DF936C01EB01DC013A
:1027B00012968C911297888313968C911397898324
:1027C0001496ED91FC91DF010D900020E9F78D0149
:1027D000015011090E1B1F0BA80170E060E0CE0133
:1027E00002960E94200AF60164817581A801CE013B
:1027F00006960E94802AC8010696F601A681B78136
:10280000FD0101900020E9F731977F01EA1AFB0AE8
:10281000A70170E060E08C0F9D1F0E94200A065FF8
:102820001F4FD60116966D917C91A701CE01800FA6
:10283000911F0E94802A0E0D1F1DF601A085B185F3
:10284000FD0101900020E9F731977F01EA1AFB0AA8
:10285000A70170E060E0CE01800F911F0E94200A66
:102860000C5F1F4FD60118966D917C91A701CE0188
:10287000800F911F0E94802AC701800F911FF601CF
:102880006285438534852585C80FD91F68834983B0
:102890003A832B830496DF91CF911F910F91FF9084
:1028A000EF90DF90CF9008952F923F924F925F92DA
:1028B0006F927F928F929F92AF92BF92CF92DF9250
:1028C000EF92FF920F931F93CF93DF93CDB7DEB7B5
:1028D0002E970FB6F894DEBF0FBECDBF8C016B01F3
:1028E000DB018D909D90AD90BC90FC018281938125
:1028F000A481B58188159905AA05BB0570F4B401BA
:10290000660F771F660F771F828593850E949F2928
:10291000D8011B969C938E931A97F801828293821A
:10292000A482B582C60140E050E0BA01A4E0EA2EDC
:10293000F12C98012A5F3F4FDC011596EC91159719
:1029400016964C901697512C712C612C32015524FF
:1029500044245E2A1496EC9114974E2A1796EC9113
:102960007E2AD7011701E4E02E0E311C7101049676
:10297000F80182809380A480B580481559056A05C6
:102980007B05A8F446825782608671861497A284DC
:10299000B384AA0DBB1DE4E0BE2EF90101900D9297
:1029A000BA94E1F74F5F5F4F6F4F7F4FC5CF84857C
:1029B0009585A685B78584159505A605B70570F498
:1029C000B201660F771F660F771F848995890E9471
:1029D0009F29D80155969C938E935497F80144866D
:1029E000558666867786C601820D931D412C512C33
:1029F00032011C019801205F3F4FDC0111966C9160
:102A0000119712968C901297912CB12CA12C5401F5
:102A100099248824962A6C91862A13966C91B62A5A
:102A2000B4E0EB0EF11CF801448555856685778589
:102A30004416550666067706C0F4808A918AA28AF3
:102A4000B38ABC0162197309A489B589A60FB71F9F
:102A500064E0F90101900D926A95E1F7BFEF4B1A1E
:102A60005B0A6B0A7B0A0496C8CF86899789A08D7A
:102A7000B18D88159905AA05BB0560F4B401660FF0
:102A8000771F848D958D0E949F29D8015D969C9318
:102A90008E935C97F801868A978AA08EB18E412C1E
:102AA000512C32011801FAE12F0E311CF8018689F0
:102AB0009789A08DB18D481659066A067B0608F0E5
:102AC0005CC0B6016E0D7F1DCE0101960E94EF091C
:102AD00097012C5F3F4F3E872D8789809A80AB807E
:102AE000BC80C901032E000CAA0BBB0BAC01BD01BD
:102AF000480D591D6A1D7B1D49875A876B877C8746
:102B0000F901EC0DFD1D9F012C193D09B90190E063
:102B100080E029853A854B855C85621773078407B9
:102B2000950728F42191DF0112972C93ECCFED84C7
:102B3000FE84E80CF91CF601EE0DFF1D31971082A2
:102B40008D859E8501978C0D9D1DD8015B969C936C
:102B50008E935A97C201880F991F5C96ED91FC9154
:102B6000E80FF91FD1018D919C9191838083BFEF74
:102B70004B1A5B0A6B0A7B0A99CFC7012E960FB6D8
:102B8000F894DEBF0FBECDBFDF91CF911F910F91A3
:102B9000FF90EF90DF90CF90BF90AF909F908F907D
:102BA0007F906F905F904F903F902F9008952F925D
:102BB0003F924F925F926F927F928F929F92AF92CD
:102BC000BF92CF92DF92EF92FF920F931F93CF931A
:102BD000DF93CDB7DEB7A6970FB6F894DEBF0FBE72
:102BE000CDBF8C010E94FD034B015C01980125576C
:102BF0003B4F3E8B2D8BF90180819181A281B38166
:102C000075016401C81AD90AEA0AFB0AD701C6018C
:102C1000893F9A42A105B10510F03597108218013D
:102C200034E8231A3BEF330AD1018D919C91892B13
:102C300079F0F801E157FB4F80819181A281B38146
:102C400088159905AA05BB0518F4F10111821082B7
:102C500098012C573B4F3A8B298BA80140585B4F6A
:102C60005C8B4B8BC8014896988F8F8BD801AA57E5
:102C7000BB4FBC8FAB8FF801EC56FB4FFE8FED8F37
:102C8000215F3F4F38A32F8F42505109588B4F87F8
:102C900086599B4F9A8F898F1996BAA3A9A3A5012C
:102CA00094012C5E3F4F4F4F5F4F2BA33CA34DA38E
:102CB0005EA3F80184899589A689B789892B8A2B17
:102CC0008B2BB9F5D80112968D919C91DC01ED9179
:102CD000FC910284F385E02D19959C0197FF3DC07E
:102CE000F801EA57FB4F8081882301F17801B9E7A9
:102CF000EB1ABBEFFB0AF70180819181A281B381BE
:102D0000A5019401281B390B4A0B5B0BDA01C901A1
:102D1000853C9940A105B10548F0C8010E94B4095D
:102D2000D7018D929D92AD92BC92139790E080E076
:102D3000B6C10E94FD03681979098A099B09F80147
:102D4000C488D588E688F788C616D706E806F90647
:102D500008F0B8CF8EEF9FEFA2C1A989BA898D91F3
:102D60009C911197820F931F8D939C93F101408149
:102D7000518147305105F9F4A98DBA8D8D919C91FF
:102D80001197AC014F5F5F4F4D935C93800F911F84
:102D9000FC01208FAF85B8898D919C911197019787
:102DA0008D939C93892B09F084CF88E090E0F1010A
:102DB000918380837ECF4115510521F52F3F310549
:102DC00081F481E090E091838083CBA0DCA0EDA032
:102DD000FEA0A9A1BAA1CD92DD92ED92FC9213972B
:102DE00068CF0E94FD03681979098A099B0969382F
:102DF00073418105910508F45CCFF801EA57FB4F58
:102E00001082A8CF4130510589F42E3F310519F4C5
:102E100082E090E0CCCF11821082EB8DFC8D80811E
:102E2000811147CFC8010E94B40943CF42305105F8
:102E300091F4AF85B8892D933C93E98DFA8D118279
:102E4000108283E090E0D1018D939C93E989FA8907
:102E5000318320832ECF4330510571F4322F222746
:102E6000AF85B8898D919C911197280F391F2D93AB
:102E70003C9384E090E09BCF4430510579F460E0CE
:102E800071E00E9454268F3F910529F485E090E07F
:102E9000918380830ECF118210820BCF4530510574
:102EA00069F4AB89BC892D933C9386E090E09183D3
:102EB0008083A989BA892D933C93FBCE4630510576
:102EC000A1F4322F2227EB89FC8980819181280F80
:102ED000391F3183208387E090E0D1018D939C934B
:102EE000EF85F889808191815DCF4830510509F0E7
:102EF000E0CE1182108260E071E00E9454268F3F84
:102F0000910509F0D6CEAB89BC89ED91FC91309743
:102F100009F0DEC0C8010E94B40982E392E09A83FE
:102F200089831C821B828CEF94E09E838D8398871B
:102F30008F839A8789871B861C861D861E8668015B
:102F4000B8EECB1ABBEFDB0A7801E6EBEE1AEBEF3B
:102F5000FE0A412C22E0522E612C712CD601ED91FB
:102F6000FC913097A9F1848195819C838B8380812A
:102F700091819E838D8382819381DC01ED91FC910F
:102F80000480F581E02D199598878F83D601ED9106
:102F9000FC9182819381DC01ED91FC910680F781A7
:102FA000E02D19959A8789874B865C866D867E868B
:102FB000D601ED91FC9160857185D801ED91FC9170
:102FC0000190F081E02DAE014F5F5F4FC801199570
:102FD000B2E0CB0ED11CEC14FD0409F0BFCF412CA4
:102FE00092E0592E612C712CF701A081B1811097CC
:102FF000E1F112968D919C9113979C838B8314968B
:103000008D919C9115979E838D83ED91FC911197E5
:103010000480F581E02DCD01199598878F83D70124
:103020008D919C91DC01ED91FC910680F781E02D62
:1030300019959A8789874B865C866D867E86D8012E
:10304000ED91FC91C080D180F70180819181DC01FC
:10305000ED91FC910280F381E02D1995AE014F5F57
:103060005F4FBC01C801F6011995F2E0EF0EF11CAB
:10307000E214F30409F0B8CFF801EA57FB4F81E0FE
:103080008083319680829182A282B382AD89BE898B
:103090008D929D92AD92BC9213978FEF9FEFA69663
:1030A0000FB6F894DEBF0FBECDBFDF91CF911F9159
:1030B0000F91FF90EF90DF90CF90BF90AF909F90D7
:1030C0008F907F906F905F904F903F902F900895DA
:1030D000EA30F10509F0A1C08EE392E09A8389837A
:1030E0001B821C821D821E821F82188619861A86E8
:1030F0000E94FD03F801C084D184E284F3849B0123
:10310000AC012C193D094E095F0969017A016F89EB
:10311000788DCE0101960E94EF0DC701B60128EE11
:1031200033E040E050E00E94682669017A019B018B
:10313000AC018B819C81AD81BE818C0D9D1DAE1D2E
:10314000BF1D8B839C83AD83BE8360E472E48FE0FC
:1031500090E00E944426CF80D884E984FA84DC0180
:10316000CB018C0D9D1DAE1DBF1D8F839887A98738
:10317000BA870E94FD03CF80D884E984FA8436E3BD
:10318000D31A35E6E30A34ECF30A28EE33E040E0E4
:1031900050E00E94682629013A019B01AC0160E4DD
:1031A00072E48FE090E00E944426A7019601261B5E
:1031B000370B480B590BCA01B9012B813C814D815A
:1031C0005E81215031094109510969017A01C41810
:1031D000D508E608F7082601370120E03AEC4AE96D
:1031E0005BE30E946826420E531E641E751ED801C2
:1031F0001C964D925D926D927C921F97F801608BA8
:10320000718B828B938B0E94FD03AD89BE896D9378
:103210007D938D939C9313974CCDE630F10559F433
:103220006F89788D8D8D9E8D0E94541481E0EF8D75
:10323000F8A180833ECDEB30F10521F4AB8DBC8D40
:103240001C9237CDEF53FE4FEE0FFF1FE00FF11F23
:1032500080819181009709F42CCDDC01ED91FC91E6
:103260000190F081E02D6F89788D199522CD1F9204
:103270000F920FB60F9211242F933F938F939F932A
:10328000AF93BF9380917C0690917D06A0917E06BE
:10329000B0917F0630917B0623E0230F2D3758F540
:1032A0000196A11DB11D20937B0680937C0690930F
:1032B0007D06A0937E06B0937F0680918006909154
:1032C0008106A0918206B09183060196A11DB11DD1
:1032D0008093800690938106A0938206B093830624
:1032E000BF91AF919F918F913F912F910F900FBE02
:1032F0000F901F90189526E8230F0296A11DB11D6F
:10330000D2CF1F920F920FB60F9211240BB60F92CD
:103310002F933F934F935F936F937F938F939F93DD
:10332000AF93BF93EF93FF9380EE96E00E94AF04BC
:10333000FF91EF91BF91AF919F918F917F916F918D
:103340005F914F913F912F910F900BBE0F900FBE49
:103350000F901F9018951F920F920FB60F92112485
:103360000BB60F922F938F939F93EF93FF93E09160
:10337000F006F091F1068081E091F606F091F706F3
:1033800082FD1DC090818091F9068F5F8F7320911F
:10339000FA06821741F0E091F906F0E0E052F94FA9
:1033A000958F8093F906FF91EF919F918F912F91C7
:1033B0000F900BBE0F900FBE0F901F90189580813D
:1033C000F2CF1F920F920FB60F9211240BB60F92ED
:1033D0002F933F934F935F936F937F938F939F931D
:1033E000AF93BF93EF93FF938091B900887F8036AE
:1033F00009F44DC008F040C0883209F4A9C028F58E
:10340000803109F49DC0C8F4882309F4FBC08830DA
:1034100009F496C0FF91EF91BF91AF919F918F9169
:103420007F916F915F914F913F912F910F900BBEC4
:103430000F900FBE0F901F901895883109F488C027
:10344000803241F78093A80614C0803409F49DC0EF
:1034500040F48033B9F38833E9F68093A80685EC0D
:10346000B0C0803509F485C0883509F496C0883429
:1034700089F60E948212CECF883909F48CC038F5C3
:10348000883729F050F4883611F0803719F683E038
:103490008093AA061092370657C0883809F47BC07B
:1034A000803919F0803809F0B5CF80913706803225
:1034B00008F071C0E091370681E08E0F80933706E7
:1034C0008091BB00F0E0E95EF94F80833DC0803B16
:1034D00039F0E0F4803A09F479C0883A09F09ACFDB
:1034E00084E08093AA061092160610921506E091C9
:1034F0006606F091670619958091150681110FC037
:1035000081E0809315061092F50509C0803C09F40E
:10351000A6CF883C09F4A3CF883B09F07BCFE0918C
:10352000160681E08E0F80931606F0E0EB50FA4FFE
:1035300080818093BB00909116068091150629C06A
:10354000809185068093BB0085EC8093BC0062CFA0
:103550009091A7068091A606981758F5E091A706C6
:1035600081E08E0F8093A706F0E0EA57F94F808143
:10357000E9CFE091A70681E08E0F8093A7068091A6
:10358000BB00F0E0EA57F94F80839091A706809145
:10359000A6069817C8F285E8D8CFE091A70681E083
:1035A0008E0F8093A7068091BB00F0E0EA57F94F99
:1035B00080838091A90681115CCF81E0809384068D
:1035C00084EA8093BC001092AA0624CF85EC8093F5
:1035D000BC001092AA0680913706803230F4E09148
:1035E0003706F0E0E95EF94F10826091370670E02F
:1035F000E0916406F091650687E196E019951092D6
:10360000370608CF1092A80634CF1F920F920FB63C
:103610000F9211240BB60F922F933F934F935F930A
:103620006F937F938F939F93AF93BF93EF93FF938A
:103630008091EA059091EB050E94700AFF91EF914D
:10364000BF91AF919F918F917F916F915F914F91BA
:103650003F912F910F900BBE0F900FBE0F901F90B8
:1036600018951F920F920FB60F9211240BB60F925E
:103670002F933F934F935F936F937F938F939F937A
:10368000AF93BF93EF93FF938091E8059091E90585
:103690000E94700AFF91EF91BF91AF919F918F911E
:1036A0007F916F915F914F913F912F910F900BBE42
:1036B0000F900FBE0F901F9018951F920F920FB68C
:1036C0000F9211240BB60F922F933F934F935F935A
:1036D0006F937F938F939F93AF93BF93EF93FF93DA
:1036E0008091F2059091F3050E94700AFF91EF918D
:1036F000BF91AF919F918F917F916F915F914F910A
:103700003F912F910F900BBE0F900FBE0F901F9007
:1037100018951F920F920FB60F9211240BB60F92AD
:103720002F933F934F935F936F937F938F939F93C9
:10373000AF93BF93EF93FF938091F0059091F105C4
:103740000E94700AFF91EF91BF91AF919F918F916D
:103750007F916F915F914F913F912F910F900BBE91
:103760000F900FBE0F901F9018951F920F920FB6DB
:103770000F9211240BB60F922F933F934F935F93A9
:103780006F937F938F939F93AF93BF93EF93FF9329
:103790008091EE059091EF050E94700AFF91EF91E4
:1037A000BF91AF919F918F917F916F915F914F9159
:1037B0003F912F910F900BBE0F900FBE0F901F9057
:1037C00018951F920F920FB60F9211240BB60F92FD
:1037D0002F933F934F935F936F937F938F939F9319
:1037E000AF93BF93EF93FF938091EC059091ED051C
:1037F0000E94700AFF91EF91BF91AF919F918F91BD
:103800007F916F915F914F913F912F910F900BBEE0
:103810000F900FBE0F901F90189590E0823090F49B
:1038200004968330910569F17CF481309105C9F0EB
:103830000297F9F0809169008C7F81608093690024
:10384000E89A08950297EDCF8430910511F105971C
:1038500089F780916A00837F846080936A00ED9A83
:10386000089580916900837F846080936900E99A5C
:103870000895809169008F7C806180936900EA9A45
:103880000895809169008F73806480936900EB9A3A
:10389000089580916A008C7F816080936A00EC9A21
:1038A00008958330C1F020F4823061F080E0089503
:1038B0008231B9F08331D1F77093F1056093F0054F
:1038C00084E005C07093E9056093E80580E00E94FC
:1038D0000D1C81E008957093EB056093EA0581E08B
:1038E000F6CF7093F3056093F20585E0F0CFCF93A8
:1038F000DF93EC01862F61E00E94A70361E08C81D9
:103900000E94A70361E08E810E94A703CA8161E043
:103910008C2F0E94A70360E08C2FDF91CF910C9435
:103920001B03CF92DF92EF92FF920F931F9310929F
:10393000E3061092E20688EE93E0A0E0B0E0809308
:10394000E4069093E506A093E606B093E70626E525
:1039500032E03093E1062093E00625EC30E030932E
:10396000ED062093EC0624EC30E03093EF06209334
:10397000EE0620EC30E03093F1062093F00621ECC7
:1039800030E03093F3062093F20622EC30E03093DF
:10399000F5062093F40626EC30E03093F7062093EA
:1039A000F6061092F9061092FA061092FB06109293
:1039B000FC061092D7061092D6068093D8069093F4
:1039C000D906A093DA06B093DB0688E692E09093DE
:1039D000D5068093D40688E68093DA0D8093CB0DCC
:1039E00049E063E085EB9DE00E94450B42E068E022
:1039F0008FE99DE00E94450B44E063E189E89DE08A
:103A00000E94450B42E167E083E79DE00E94450B81
:103A100010926C0D10926B0D8AE090E090936E0DF9
:103A200080936D0D8AE190E09093700D80936F0DFF
:103A30008BE190E09093720D8093710D6AE070E0DD
:103A40008BE69DE00E94771C1092640D1092630D2E
:103A50008BE090E09093660D8093650D8CE190E093
:103A60009093680D8093670D8DE190E090936A0DBF
:103A70008093690D6BE070E083E69DE00E94771C07
:103A800010925C0D10925B0D8CE090E090935E0DB7
:103A900080935D0D8EE190E09093600D80935F0DBB
:103AA0008FE190E09093620D8093610D6CE070E087
:103AB0008BE59DE00E94771C1092540D1092530DDF
:103AC0008DE090E09093560D8093550D80E290E04C
:103AD0009093580D8093570D81E290E090935A0D8A
:103AE0008093590D6DE070E083E59DE00E94771CA6
:103AF000C12C80E8D82EED2C83ECF82EC092330D2B
:103B0000D092340DE092350DF092360D00E010E0C9
:103B10002FE733E40093370D1093380D2093390DC0
:103B200030933A0D4DEC5CEC6CEC7DE340933B0D37
:103B300050933C0D60933D0D70933E0D8AE097EDE0
:103B4000A3EABDE380933F0D9093400DA093410DF8
:103B5000B093420D1092430D1092440D1092450DFA
:103B60001092460DC092130DD092140DE092150DD7
:103B7000F092160D0093170D1093180D2093190D48
:103B800030931A0D40931B0D50931C0D60931D0D27
:103B900070931E0D80931F0D9093200DA093210D07
:103BA000B093220D1092230D1092240D1092250D2A
:103BB0001092260DC092F30CD092F40CE092F50C0A
:103BC000F092F60C0093F70C1093F80C2093F90C7C
:103BD0003093FA0C4093FB0C5093FC0C6093FD0C5B
:103BE0007093FE0C8093FF0C9093000DA093010D39
:103BF000B093020D1092030D1092040D1092050D5A
:103C00001092060DC092D30CD092D40CE092D50C39
:103C1000F092D60C0093D70C1093D80C2093D90CAB
:103C20003093DA0C4093DB0C5093DC0C6093DD0C8A
:103C30007093DE0C8093DF0C9093E00CA093E10C6A
:103C4000B093E20C1092E30C1092E40C1092E50C8D
:103C50001092E60C84E090E09093BE0C8093BD0C33
:103C600022EF30E03093C00C2093BF0C4EE05DE2B9
:103C700062E37EE34093C10C5093C20C6093C30C8B
:103C80007093C40C48EA56EC6BE87EE34093C50C95
:103C90005093C60C6093C70C7093C80C41E457E86E
:103CA0006EE77EE34093CD0C5093CE0C6093CF0C27
:103CB0007093D00C9093D20C8093D10C86EB92E051
:103CC00090930C0880930B0880EE96E090930E087A
:103CD00080930D0880E091EEA0E0B0E080930F08A3
:103CE00090931008A0931108B09312081092910CB1
:103CF0008AEA92E09093A00C80939F0C1092B50CEE
:103D00001092B60C1092B70C1092B80C1092BC0C1A
:103D10001092BB0CE3E2FCE0119211928CE0E535CD
:103D2000F807D1F7E5E5FCE0119211928CE0E73855
:103D3000F807D1F7E3E2F8E083E29AE011928E17F8
:103D40009F07E1F7E3E2FAE083E29CE011928E172D
:103D50009F07E1F71092A10C1092A20C1092A30CF5
:103D60001092A40C1092AA0C1092A90C1092AB0CF9
:103D70001092AC0C1092AD0C1092AE0C1092B40CD0
:103D80001092B30C10921F08109220081092210874
:103D9000109222088CEC92E09093E4078093E30762
:103DA0008EE992E09093EA078093E9078BEE97E023
:103DB0000E94220C89EF97E00E94220C89E094E097
:103DC000909308088093070881E090E090930A0898
:103DD000809309082BEC34E03093E8072093E70741
:103DE00020EC32E03093CC072093CB0722E932E07D
:103DF0003093D2072093D1071092D3071092D407A3
:103E00001092D5071092D6071092D7071092D807B4
:103E10001092D9071092DA071092DB071092DC0794
:103E20001092DD071092DE0726E23AE03093E007B9
:103E30002093DF079093E2078093E10783ED94E0FE
:103E40009093D0078093CF0786E892E09093A007E5
:103E500080939F0781EA97E00E94220C8FEA97E007
:103E60000E94220C8DEB97E00E94220C87ED94E0DB
:103E700090939607809395078FE997E09093980722
:103E80008093970710929E0710929D078AE792E011
:103E900090938807809387071092890710928A076A
:103EA00010928B0710928C0710928D0710928E073C
:103EB00010928F071092900710929107109292071C
:103EC00010929307109294078FED94E090937E07E1
:103ED00080937D0787E897E09093800780937F0722
:103EE00010928607109285071F910F91FF90EF9017
:103EF000DF90CF900895CF93DF93CDB7DEB7CC5846
:103F0000D1090FB6F894DEBF0FBECDBF789484B54B
:103F1000826084BD84B5816084BD85B5826085BDC5
:103F200085B5816085BD80916E00816080936E0053
:103F30001092810080918100826080938100809145
:103F400081008160809381008091800081608093F6
:103F500080008091B10084608093B1008091B000B6
:103F600081608093B0008091910082608093910085
:103F70008091910081608093910080919000816098
:103F8000809390008091A10082608093A100809135
:103F9000A10081608093A1008091A0008160809346
:103FA000A0008091210182608093210180912101F4
:103FB00081608093210180912001816080932001A4
:103FC00080917A00846080937A0080917A00826088
:103FD00080937A0080917A00816080937A0080914A
:103FE0007A00806880937A001092C10000910D08D9
:103FF00010910E08C0900F08D0901008E0901108A2
:10400000F090120860E079E08DE390E0A70196015E
:104010000E9468262150310941095109569547955A
:1040200037952795D8015096ED91FC9182E08083D9
:10403000C114B1EEDB06E104F10421F02115E0E149
:104040003E07A8F0D8015096ED91FC91108260E8EF
:1040500074E88EE190E0A70196010E946826215045
:104060003109410951095695479537952795D8014A
:104070001C96ED91FC911D9730831E96ED91FC915D
:104080001F97208358961C9258975496ED91FC9157
:10409000559786E080835296ED91FC9153978081ED
:1040A000806180835296ED91FC9153978081886066
:1040B00080835296ED91FC91539780818068808334
:1040C0005296ED91FC9180818F7D80831092880CB7
:1040D0001092870C10928A0C1092890C10928E0C00
:1040E00010928D0C10928C0C10928B0C80E091EE43
:1040F000A0E0B0E080930F0890931008A0931108FF
:10410000B0931208A5E5BCE0FD0190E080E02191AC
:104110003191232B09F068C0FC01EE0FFF1FEB5A11
:10412000F34F2BEC37E0318320838C599F4F9093D2
:10413000CE078093CD0790E080E02D913D91232B19
:1041400009F058C0FC01EE0FFF1FEB5AF34F23EEAE
:1041500037E0318320838C599F4F9093E6078093FB
:10416000E507A3E2BCE0FD0190E080E02191319100
:10417000232B09F045C0FC01EE0FFF1FED5DF34F4F
:104180002DE737E03183208383589F4F9093820738
:10419000809381078BE098E0909384078093830756
:1041A00090E080E02D913D91232B81F5FC01EE0FF5
:1041B000FF1FED5DF34F25E937E0318320838358FE
:1041C0009F4F90939A07809399078BE098E0909384
:1041D0009C0780939B078091910C81111CC08BE000
:1041E00098E00E94D715F7CF01968931910509F023
:1041F0008ECFA1CF01968931910509F09ECFB1CF25
:1042000001968931910509F0B1CFCACF0196893164
:10421000910541F6E0CF47EE54E061E08BE098E095
:104220000E94260942E150E067EE74E080EE96E0DD
:104230000E943B0442E050E06AEF74E080EE96E0BA
:104240000E943B040E94D8036B017C010E94D803AA
:104250006C197D098E099F09683E7340810591059F
:10426000A8F3FE0131961F010E94FD03009177061D
:10427000109178062091790630917A06601B710BB7
:10428000820B930B623371058105910508F4D0C14F
:10429000E0905806F090590600915A0610915B067E
:1042A000609160067091610680916206909163064C
:1042B0002091BD0C3091BE0C2230310508F0C1C2F6
:1042C00020E030E0A9010E94080229833A834B8351
:1042D0005C836D837E838F83988788E0F101DE01A4
:1042E000A758BF4F01900D928A95E1F7EB960EAD5E
:1042F0001FADEB97ED96EEACFFACED97EF966EAC85
:104300007FACEF97C158DF4F48805980CF57D040DE
:1043100085EB9DE00E94C70ACF57DF4F99838883C2
:10432000C158D0408FE99DE00E94C70AC757DF4FB0
:1043300099838883C958D04089E89DE00E94C70AC4
:10434000CB57DF4F99838883C558D04083E79DE0E2
:104350000E94C70AC957DF4F99838883C758D04046
:104360009F938F935F924F92CA57DF4FF881C65841
:10437000D040FF93CB57DF4F2881C558D0402F93B3
:104380007F926F92C657DF4F3881CA58D0403F9313
:10439000C757DF4F4881C958D0404F93FF92EF92E3
:1043A000CE57DF4F5881C258D0405F93CF57DF4F71
:1043B0008881C158D0408F931F930F93ADEFB4E025
:1043C000BF93AF933F922F920E94892AA10161E08F
:1043D0008BE098E00E942609CF57DF4F2881398172
:1043E000C158D040B901330F880B990B0E94DC27CC
:1043F0004B015C01B801110F880B990B0E94DC275F
:10440000AB01BC019501840183E39DE00E946F052F
:104410000E94A4278BE69DE00E941706C757DF4F36
:1044200048815981C958D040BA01550F880B990B62
:104430000E94DC274B015C01B701FF0C880B990B34
:104440000E94DC27AB01BC019501840183E19DE062
:104450000E946F050E94A42783E69DE00E94170634
:10446000CB57DF4FA881B981C558D040BD01BB0FE4
:10447000880B990B0E94DC276B017C01B301770C40
:10448000880B990B0E94DC27AB01BC0197018601C8
:1044900083EF9CE00E946F050E94A4278BE59DE0BE
:1044A0000E941706C957DF4FE881F981C758D040ED
:1044B000BF01FF0F880B990B0E94DC276B017C0169
:1044C000B201550C880B990B0E94DC27AB01BC0193
:1044D0009701860183ED9CE00E946F050E94A4274E
:1044E00083E59DE00E9417062091BD0C3091BE0C23
:1044F000C557DF4F39832883CB58D040C901029775
:104500000FB6F894DEBF0FBECDBFCF57DF4FE880A8
:10451000F980C158D040C757DF4FA881B981C95829
:10452000D040EA0EFB1E0091D10C1091D20C0297E4
:1045300008F0A0C1B701FF0C880B990B0E94DC2783
:104540006B017C01B801110F880B990B0E94DC27CD
:104550009B01AC01C701B6010E94322720E030E088
:1045600040E752E40E9432272091CD0C3091CE0CCE
:104570004091CF0C5091D00C0E9491286B017C018E
:1045800060E070E0CB010E94FE289B01AC01C701F6
:10459000B6010E9491282091C10C3091C20C40912B
:1045A000C30C5091C40C0E943227CF57DF4F1882A2
:1045B00019821A821B82C158D040C0928907D092BA
:1045C0008A07E0928B07F0928C07CF57DF4F288144
:1045D00039814A815B81C158D04020938D07309347
:1045E0008E0740938F0750939007609391077093C5
:1045F00092078093930790939407809183079091FB
:1046000084076091810770918207DC01ED91FC9134
:104610000190F081E02D47E857E019950E94FD03D5
:1046200060937706709378068093790690937A0664
:104630000E94FD0300917306109174062091750687
:1046400030917606601B710B820B930B60397140C1
:1046500081059105C0F010926006109261061092DB
:1046600062061092630610925C0610925D0610922C
:104670005E0610925F06109258061092590610922C
:104680005A0610925B060E94FD0300916F0610917E
:1046900070062091710630917206601B710B820BBF
:1046A000930B623371058105910508F448C0809130
:1046B0006E068111D6C1109269061092680610929A
:1046C000B1061092D3060E944207E9E3F4E0F093AA
:1046D0006706E09366062AE334E03093650620938C
:1046E00064068AED9DE00E94401208EE13E09101FD
:1046F00041E065E78091DA0D0E947910882339F056
:1047000089818E7790E0959587958093DB0D8091D8
:10471000DB0D843309F483C110926E064FE355E03C
:1047200064E08BE098E00E9426090E94FD036093FC
:104730006F067093700680937106909372060E94C4
:10474000FD0300916A0610916B0620916C06309172
:104750006D06601B710B820B930B683C7105810524
:10476000910508F467C085EB9DE00E94B20A9F9313
:104770008F937F936F93E4E8F5E0FF93EF933F927D
:104780002F920E94892AA10161E08BE098E00E94AB
:1047900026098FE99DE00E94B20A9F938F937F9331
:1047A0006F934DE955E05F934F933F922F920E9494
:1047B000892AA10161E08BE098E00E94260989E83E
:1047C0009DE00E94B20A9F938F937F936F93A6EB15
:1047D000B5E0BF93AF933F922F920E94892AA10127
:1047E00061E08BE098E00E94260983E79DE00E944B
:1047F000B20A9F938F937F936F932FEC35E03F9393
:104800002F933F922F920E94892A0FB6F894DEBF11
:104810000FBECDBFA10161E08BE098E00E942609A8
:104820000E94FD0360936A0670936B0680936C068A
:1048300090936D068BE098E00E94D7150E943E058C
:1048400013CDA901425051094230510530F4E12CF9
:10485000F12C8701A801970136CD2430310509F0EC
:104860003CCD20915C0630915D0640915E065091F2
:104870005F0629CDB801110F880B990B0E94DC2728
:104880004B015C014090CD0C5090CE0C6090CF0C51
:104890007090D00CCB57DF4F68817981C558D040DC
:1048A0006E0D7F1DC957DF4FE881F981C758D04091
:1048B0006E0F7F1F072E000C880B990B0E94DC27C0
:1048C000A50194010E94322720E030E040E752E445
:1048D0000E943227A30192010E9491286B017C0162
:1048E000C757DF4F08811981C958D040CF57DF4FD4
:1048F00028813981C158D040021B130BC557DF4FA7
:1049000048815981CB58D0404430510509F07EC0D0
:10491000CB57DF4F68817981C558D040600F711F38
:10492000C957DF4F88819981C758D040681B790BE0
:10493000072E000C880B990B0E94DC27A50194011F
:104940000E94322720E030E040E752E40E94322704
:10495000A30192010E949128CF57DF4F688379838A
:104960008A839B83C158D040B801CB57DF4FA881C1
:10497000B981C558D0406A1B7B0BC957DF4FE8810E
:10498000F981C758D0406E0F7F1F072E000C880B8F
:10499000990B0E94DC27A50194010E94322720E098
:1049A00030E040E752E40E943227A30192010E94C6
:1049B00091284B015C0120E030E040E05FE3609132
:1049C000C10C7091C20C8091C30C9091C40C0E94D8
:1049D00091282B013C0120E030E040E05FE3609152
:1049E000C50C7091C60C8091C70C9091C80C0E94A8
:1049F00091289B01AC01C301B2010E94C1269B0119
:104A0000AC01C501B4010E943227D7CDCF57DF4F8B
:104A1000188219821A821B82C158D040A5CF8BEC14
:104A20009DE00E94401208EE13E0910141E065E72D
:104A30008091CB0D0E947910882339F089818E777F
:104A400090E0959587958093CC0D8091CC0D843323
:104A500009F062CE81E080936E0644E755E061E0A4
:104A600060CEC1010E94220C08EE13E02BED3DE068
:104A700046E06BE38091DA0D0E9479106091DD0DC4
:104A80007091DE0D762767277627072E000C880B9E
:104A9000990B0E94DC2720E030E040E858E30E94B8
:104AA000912823EC35EF4CE151E40E9491284B0111
:104AB0005C016091DF0D7091E00D76276727762706
:104AC000072E000C880B990B0E94DC2720E030E0B9
:104AD00040E858E30E94912823EC35EF4CE151E483
:104AE0000E9491286B017C016091DB0D7091DC0DBF
:104AF000762767277627072E000C880B990B0E94D4
:104B0000DC2720E030E040E858E30E94912823ECC5
:104B100035EF4CE151E40E9491286093A307709314
:104B2000A4078093A5079093A6078092A707909269
:104B3000A807A092A907B092AA07C092AB07D0928B
:104B4000AC07E092AD07F092AE07C1010E94220CC3
:104B50002CEC3DE046E063E48091CB0D0E9479109F
:104B60006091CE0D7091CF0D762767277627072E9F
:104B7000000C880B990B0E94DC2720E030E043E01A
:104B800053E40E94322725E33AEF4EE85CE30E94AB
:104B900091284B015C016091D00D7091D10D762769
:104BA00067277627072E000C880B990B0E94DC27BD
:104BB00020E030E043E053E40E94322725E33AEF5F
:104BC0004EE85CE30E9491286B017C016091CC0D62
:104BD0007091CD0D762767277627072E000C880B5E
:104BE000990B0E94DC2720E030E043E053E40E9470
:104BF000322725E33AEF4EE85CE30E949128609368
:104C0000B1077093B2078093B3079093B407809273
:104C1000B5079092B607A092B707B092B807C092B6
:104C2000B907D092BA07E092BB07F092BC07C10166
:104C30000E94220C1092BF071092C0071092C10769
:104C40001092C2071092C3071092C4071092C507B2
:104C50001092C6071092C7071092C8071092C90792
:104C60001092CA0780919B0790919C0760919907C9
:104C700070919A07DC01ED91FC910190F081E02D9B
:104C80004FE957E0199551CDDB018F939F930E9417
:104C90009226BF91AF91A29F800D911DA39F900D71
:104CA000B29F900D1124089597FB072E16F40094DF
:104CB00007D077FD09D00E949D2607FC05D03EF461
:104CC000909581959F4F0895709561957F4F0895B8
:104CD000A1E21A2EAA1BBB1BFD010DC0AA1FBB1F00
:104CE000EE1FFF1FA217B307E407F50720F0A21B72
:104CF000B30BE40BF50B661F771F881F991F1A94DF
:104D000069F760957095809590959B01AC01BD0108
:104D1000CF010895EE0FFF1F881F8BBF0790F691FC
:104D2000E02D19940E94B126A59F900DB49F900D7F
:104D3000A49F800D911D11240895AA1BBB1B51E156
:104D400007C0AA1FBB1FA617B70710F0A61BB70BFB
:104D5000881F991F5A95A9F780959095BC01CD01A0
:104D60000895A29FB001B39FC001A39F700D811D44
:104D70001124911DB29F700D811D1124911D089564
:104D80005058BB27AA270E94D8260C9452280E946C
:104D9000442838F00E944B2820F039F49F3F19F442
:104DA00026F40C9441280EF4E095E7FB0C943B2884
:104DB000E92F0E94632858F3BA1762077307840724
:104DC000950720F079F4A6F50C9485280EF4E0956B
:104DD0000B2EBA2FA02D0B01B90190010C01CA01B5
:104DE000A0011124FF27591B99F0593F50F4503E60
:104DF00068F11A16F040A22F232F342F4427585F52
:104E0000F3CF469537952795A795F0405395C9F769
:104E10007EF41F16BA0B620B730B840BBAF0915021
:104E2000A1F0FF0FBB1F661F771F881FC2F70EC0C0
:104E3000BA0F621F731F841F48F487957795679593
:104E4000B795F7959E3F08F0B0CF9395880F08F07F
:104E50009927EE0F9795879508950E94172808F4D3
:104E600081E008950E9446270C9452280E944B2806
:104E700058F00E94442840F029F45F3F29F00C9438
:104E80003B2851110C9486280C9441280E946328D9
:104E900068F39923B1F3552391F3951B550BBB2769
:104EA000AA2762177307840738F09F5F5F4F220FAE
:104EB000331F441FAA1FA9F335D00E2E3AF0E0E8A5
:104EC00032D091505040E695001CCAF72BD0FE2FEF
:104ED00029D0660F771F881FBB1F26173707480783
:104EE000AB07B0E809F0BB0B802DBF01FF2793583B
:104EF0005F4F3AF09E3F510578F00C943B280C949C
:104F000086285F3FE4F3983ED4F3869577956795BE
:104F1000B795F7959F5FC9F7880F911D969587956F
:104F200097F90895E1E0660F771F881FBB1F62178E
:104F300073078407BA0720F0621B730B840BBA0B4C
:104F4000EE1F88F7E09508950E94AB276894B11191
:104F50000C94862808950E946B2888F09F5798F03B
:104F6000B92F9927B751B0F0E1F0660F771F881F6E
:104F7000991F1AF0BA95C9F714C0B13091F00E9488
:104F80008528B1E008950C948528672F782F88270D
:104F9000B85F39F0B93FCCF3869577956795B395AF
:104FA000D9F73EF490958095709561957F4F8F4F1E
:104FB0009F4F0895E89409C097FB3EF49095809523
:104FC000709561957F4F8F4F9F4F9923A9F0F92FCF
:104FD00096E9BB279395F695879577956795B7954D
:104FE000F111F8CFFAF4BB0F11F460FF1BC06F5F33
:104FF0007F4F8F4F9F4F16C0882311F096E911C045
:10500000772321F09EE8872F762F05C0662371F065
:1050100096E8862F70E060E02AF09A95660F771F79
:10502000881FDAF7880F9695879597F90895990F55
:105030000008550FAA0BE0E8FEEF16161706E80762
:10504000F907C0F012161306E407F50798F0621B83
:10505000730B840B950B39F40A2661F0232B242B58
:10506000252B21F408950A2609F4A140A6958FEF77
:10507000811D811D089597F99F6780E870E060E0C9
:1050800008959FEF80EC089500240A9416161706E1
:1050900018060906089500240A9412161306140629
:1050A00005060895092E0394000C11F4882352F08C
:1050B000BB0F40F4BF2B11F460FF04C06F5F7F4F44
:1050C0008F4F9F4F089557FD9058440F551F59F02B
:1050D0005F3F71F04795880F97FB991F61F09F3FE5
:1050E00079F087950895121613061406551FF2CF0E
:1050F0004695F1DF08C0161617061806991FF1CF5E
:1051000086957105610508940895E894BB27662784
:105110007727CB0197F908950E94172808F48FEF9D
:1051200008950E94A4280C9452280E94442838F024
:105130000E944B2820F0952311F00C943B280C94EE
:10514000412811240C9486280E94632870F3959FAF
:10515000C1F3950F50E0551F629FF001729FBB276E
:10516000F00DB11D639FAA27F00DB11DAA1F649F0A
:105170006627B00DA11D661F829F2227B00DA11DBD
:10518000621F739FB00DA11D621F839FA00D611D43
:10519000221F749F3327A00D611D231F849F600D64
:1051A000211D822F762F6A2F11249F5750409AF08D
:1051B000F1F088234AF0EE0FFF1FBB1F661F771F19
:1051C000881F91505040A9F79E3F510580F00C94E4
:1051D0003B280C9486285F3FE4F3983ED4F38695F1
:1051E00077956795B795F795E7959F5FC1F7FE2B84
:1051F000880F911D9695879597F90895DF93D92F7C
:105200000E943929E695D7952AED3FE049E45FE30E
:10521000B33A6207730784079507D7953AF0A2EA75
:1052200049EC90680E94D8260E945228E4EEF0E0F3
:105230000E942329DD0F13F00E946229DD0F0BF479
:105240009058DF9108959F938F937F936F93FF936F
:10525000EF939B01AC010E949128EF91FF910E9476
:1052600078292F913F914F915F910C9491280C9444
:1052700041280E946B28D8F3E894E0E0BB279F57B1
:10528000F0F02AED3FE049EC06C0EE0FBB0F661FC1
:10529000771F881F28F0B23A62077307840728F047
:1052A000B25A620B730B840BE3959A9572F78038B0
:1052B00030F49A95BB0F661F771F881FD2F790486E
:1052C0000C946C299B01AC0160E070E080E89FE3E6
:1052D0000C9432279F3F31F0915020F487957795B9
:1052E0006795B795880F911D9695879597F90895BD
:1052F000DF93CF931F930F93FF92EF92DF927B0187
:105300008C01689406C0DA2EEF010E94A428FE01E9
:10531000E894A5912591359145915591A6F3EF011A
:105320000E94D826FE019701A801DA9469F7DF9060
:10533000EF90FF900F911F91CF91DF9108954F92C1
:105340005F926F927F928F929F92AF92BF92CF9215
:10535000DF92EF92FF920F931F93CF93DF938C0115
:10536000009799F4CB01DF91CF911F910F91FF909E
:10537000EF90DF90CF90BF90AF909F908F907F90F5
:105380006F905F904F900C94BB2CFC01E60FF71FC1
:105390009C0122503109E217F30708F4AEC0D9018D
:1053A000CD91DC911197C617D70720F1C530D105F3
:1053B00078F0CE0104978617970750F0C61BD70BDD
:1053C0002297C193D1936D937C93CF010E94572D67
:1053D000C801DF91CF911F910F91FF90EF90DF9067
:1053E000CF90BF90AF909F908F907F906F905F9085
:1053F0004F9008955B01AC1ABD0A4C018C0E9D1EA6
:10540000A091EB0DB091EC0D512C412CF12CE12C25
:10541000109731F58091E90D9091EA0D8815990565
:1054200009F05CC04616570608F058C0809100028B
:1054300090910102009741F48DB79EB7409104020C
:1054400050910502841B950BE817F90708F055C029
:10545000F093EA0DE093E90DF90171836083B8CF11
:105460008D919C91119712966C90129713967C9047
:105470001397A815B90559F56C0142E0C40ED11C6B
:10548000CA14DB0420F1AC014A195B09DA01129657
:10549000159780F06282738251834083D9016D93A6
:1054A0007C93E114F10471F0D7011396FC93EE9311
:1054B00012978ECF22968C0F9D1FF90191838083C6
:1054C000F301EFCFF093EC0DE093EB0D81CF481695
:1054D000590608F42C017D01D3019ACFCB010E941B
:1054E000BB2C7C01009749F0AE01B8010E94802AD4
:1054F000C8010E94572D87016BCF10E000E068CFF4
:10550000FB01DC0102C001900D9241505040D8F7E0
:1055100008950F931F93CF93DF93CDB7DEB72E97E8
:105520000FB6F894DEBF0FBECDBF0E891F8986E08F
:105530008C831A8309838FEF9FE79E838D83AE014F
:10554000465E5F4F688D798DCE0101960E94B92A23
:105550002F813885020F131FF80110822E960FB687
:10556000F894DEBF0FBECDBFDF91CF911F910F9199
:1055700008952F923F924F925F926F927F928F92F7
:105580009F92AF92BF92CF92DF92EF92FF920F93D2
:105590001F93CF93DF9300D000D000D01F921F92B3
:1055A000CDB7DEB77C013B018A01FC011782168270
:1055B000838181FFDDC1CE0101965C01F7019381FA
:1055C000F30193FD859193FF81913F01882309F4B5
:1055D00053C1853239F493FD859193FF81913F0149
:1055E000853229F4B70190E00E94F62DE7CF912C87
:1055F000212C312CFFE1F31538F08B3211F190F4AE
:10560000803209F1833229F137FC3CC020ED280FAC
:105610002A3050F536FE20C08AE0989E200D1124D5
:10562000922E06C08D3291F0803371F7689430F875
:10563000F30193FD859193FF81913F018111DACFB1
:1056400021C0689431F8689432F8F2CF689433F846
:10565000EFCF689434F8ECCFEAE02E9E200D1124B1
:10566000222E689435F8E4CF8E3229F436FC04C13A
:10567000689436F8DDCF8C3619F4689437F8D8CFB3
:105680008836B1F2982F9F7D95549330E0F08336A1
:10569000A1F18337C1F1833509F063C02801F2E03D
:1056A0004F0E511CF801C080D180692D70E036FC8E
:1056B00002C06FEF7FEFC6010E94E02D4C0168949D
:1056C00037F882010AC00C5F1F4FFFE3F98388247B
:1056D0008394912C6501E89437F833FE2DC0522C49
:1056E0008114910471F5552009F468CFB70180E267
:1056F00090E00E94F62D5A94F6CFF80180818983BC
:105700000E5F1F4FE4CF2801F2E04F0E511CF8014D
:10571000C080D180692D70E036FC02C06FEF7FEF52
:10572000C6010E94EB2D4C018201D5CFB70180E26A
:1057300090E00E94F62D2A942814190409F0B0F77D
:10574000CECFF60137FC859137FE81916F01B7010D
:1057500090E00E94F62D51105A94F1E08F1A9108B2
:10576000BFCF843619F0893609F077C0F80137FECB
:105770006BC060817181828193810C5F1F4FF32D1B
:10578000FF763F2E97FF09C09095809570956195A3
:105790007F4F8F4F9F4F689437F82AE030E0A50184
:1057A0000E94262EC82ECA188C2C432C36FE0CC004
:1057B000E89440F8C91440F434FE05C032FC03C03C
:1057C000F32DFE7E4F2E892C44FEAAC0FE01EC0D67
:1057D000F11D8081803309F09CC0242D297E422E4A
:1057E000842D8870582E43FCAAC040FEA4C09C2C77
:1057F000821418F42C0C922C981844FEA6C0B70101
:1058000080E390E00E94F62D42FE09C088E790E018
:1058100041FE02C088E590E0B7010E94F62DC91450
:1058200008F49FC0CA94D12C9FEFC91AD90ACA0C98
:10583000DB1CF60182916F01B70190E00E94F62D0A
:10584000AC14BD04B1F74FCF60817181072E000CFD
:10585000880B990B0E5F1F4F92CFD32CE894D4F88E
:105860002AE030E08537E1F1232D297FD22E8F36D3
:10587000A9F1F0F4883551F1F701868197812B96D3
:105880000FB6F894DEBF0FBECDBFDF91CF911F9151
:105890000F91FF90EF90DF90CF90BF90AF909F90CF
:1058A0008F907F906F905F904F903F902F900895D2
:1058B000803749F0883701F7D4FE02C06894D2F8E7
:1058C00020E130E00DC06894D4F8F6CF34FE03C078
:1058D000822F8660D82E20E132E002C028E030E03E
:1058E000F801D7FE0FC060817181828193810C5FC6
:1058F0001F4FA5010E94262EC82ECA183D2CE894E1
:1059000037F852CF6081718190E080E00E5F1F4FC9
:10591000F0CF42FC02C0839463CF8394839460CF22
:10592000842D867809F45CCFF6CFB70180E290E051
:105930000E94F62D83948214C0F3512C5ECF522C1A
:105940005818821408F459CFF8CF842D867809F4BA
:1059500066CF8BE241FE80E247FC8DE2B70190E02A
:105960005CCFB70180E390E00E94F62D9A9457CF68
:105970008FEF9FEF84CF0F931F93CF93DF938230EE
:10598000910510F482E090E0E091EB0DF091EC0DC8
:1059900030E020E0B0E0A0E0309799F42115310527
:1059A00009F44AC0281B390B24303105D8F58A8107
:1059B0009B816115710589F1FB0193838283FE014F
:1059C00011C0408151810281138148175907E0F0CD
:1059D0004817590799F4109761F012960C93129793
:1059E00013961C933296CF01DF91CF911F910F91A7
:1059F00008950093EB0D1093EC0DF4CF21153105B4
:105A000051F04217530738F0A901DB019A01BD019B
:105A1000DF01F801C1CFEF01F9CF9093EC0D809336
:105A2000EB0DCDCFFE01E20FF31F81939193225036
:105A3000310939832883D7CF2091E90D3091EA0DC0
:105A4000232B41F420910202309103023093EA0D9E
:105A50002093E90D209100023091010221153105BA
:105A600041F42DB73EB74091040250910502241B2A
:105A7000350BE091E90DF091EA0DE217F307A0F480
:105A80002E1B3F0B2817390778F0AC014E5F5F4F94
:105A90002417350748F04E0F5F1F5093EA0D4093CF
:105AA000E90D819391939FCFF0E0E0E09CCFCF93FD
:105AB000DF930097E9F0FC01329713821282A091E4
:105AC000EB0DB091EC0DED0130E020E01097A1F46A
:105AD00020813181820F931F2091E90D3091EA0DD1
